{
  "_format": "hh-sol-artifact-1",
  "contractName": "WarpInV1",
  "sourceName": "contracts/WarpIn.sol",
  "abi": [
    {
      "inputs": [
        {
          "internalType": "address",
          "name": "_router",
          "type": "address"
        },
        {
          "internalType": "address",
          "name": "_factory",
          "type": "address"
        },
        {
          "internalType": "address",
          "name": "_wMOVR",
          "type": "address"
        }
      ],
      "stateMutability": "nonpayable",
      "type": "constructor"
    },
    {
      "anonymous": false,
      "inputs": [
        {
          "indexed": true,
          "internalType": "address",
          "name": "previousOwner",
          "type": "address"
        },
        {
          "indexed": true,
          "internalType": "address",
          "name": "newOwner",
          "type": "address"
        }
      ],
      "name": "OwnershipTransferred",
      "type": "event"
    },
    {
      "anonymous": false,
      "inputs": [
        {
          "indexed": false,
          "internalType": "address",
          "name": "sender",
          "type": "address"
        },
        {
          "indexed": true,
          "internalType": "address",
          "name": "from",
          "type": "address"
        },
        {
          "indexed": true,
          "internalType": "address",
          "name": "pool",
          "type": "address"
        },
        {
          "indexed": false,
          "internalType": "uint256",
          "name": "amountToWarp",
          "type": "uint256"
        },
        {
          "indexed": false,
          "internalType": "uint256",
          "name": "lpReceived",
          "type": "uint256"
        }
      ],
      "name": "WarpedIn",
      "type": "event"
    },
    {
      "inputs": [],
      "name": "owner",
      "outputs": [
        {
          "internalType": "address",
          "name": "",
          "type": "address"
        }
      ],
      "stateMutability": "view",
      "type": "function"
    },
    {
      "inputs": [],
      "name": "paused",
      "outputs": [
        {
          "internalType": "bool",
          "name": "",
          "type": "bool"
        }
      ],
      "stateMutability": "view",
      "type": "function"
    },
    {
      "inputs": [],
      "name": "renounceOwnership",
      "outputs": [],
      "stateMutability": "nonpayable",
      "type": "function"
    },
    {
      "inputs": [],
      "name": "solarFactory",
      "outputs": [
        {
          "internalType": "contract ISolarFactory",
          "name": "",
          "type": "address"
        }
      ],
      "stateMutability": "view",
      "type": "function"
    },
    {
      "inputs": [],
      "name": "solarRouter",
      "outputs": [
        {
          "internalType": "contract ISolarRouter02",
          "name": "",
          "type": "address"
        }
      ],
      "stateMutability": "view",
      "type": "function"
    },
    {
      "inputs": [],
      "name": "togglePause",
      "outputs": [],
      "stateMutability": "nonpayable",
      "type": "function"
    },
    {
      "inputs": [
        {
          "internalType": "address",
          "name": "newOwner",
          "type": "address"
        }
      ],
      "name": "transferOwnership",
      "outputs": [],
      "stateMutability": "nonpayable",
      "type": "function"
    },
    {
      "inputs": [],
      "name": "wMOVR",
      "outputs": [
        {
          "internalType": "address",
          "name": "",
          "type": "address"
        }
      ],
      "stateMutability": "view",
      "type": "function"
    },
    {
      "inputs": [
        {
          "internalType": "address",
          "name": "fromToken",
          "type": "address"
        },
        {
          "internalType": "address",
          "name": "toPool",
          "type": "address"
        },
        {
          "internalType": "uint256",
          "name": "amountToWarp",
          "type": "uint256"
        },
        {
          "internalType": "uint256",
          "name": "minimumLPBought",
          "type": "uint256"
        },
        {
          "internalType": "address[]",
          "name": "path0",
          "type": "address[]"
        },
        {
          "internalType": "address[]",
          "name": "path1",
          "type": "address[]"
        }
      ],
      "name": "warpIn",
      "outputs": [
        {
          "internalType": "uint256",
          "name": "LPBought",
          "type": "uint256"
        }
      ],
      "stateMutability": "payable",
      "type": "function"
    }
  ],
  "bytecode": "0x60e060405260008060146101000a81548160ff0219169083151502179055503480156200002b57600080fd5b5060405162002c6238038062002c628339818101604052810190620000519190620002e9565b62000071620000656200020660201b60201c565b6200020e60201b60201c565b600073ffffffffffffffffffffffffffffffffffffffff168373ffffffffffffffffffffffffffffffffffffffff1614158015620000dc5750600073ffffffffffffffffffffffffffffffffffffffff168273ffffffffffffffffffffffffffffffffffffffff1614155b8015620001165750600073ffffffffffffffffffffffffffffffffffffffff168173ffffffffffffffffffffffffffffffffffffffff1614155b62000158576040517f08c379a00000000000000000000000000000000000000000000000000000000081526004016200014f9062000366565b60405180910390fd5b8273ffffffffffffffffffffffffffffffffffffffff1660808173ffffffffffffffffffffffffffffffffffffffff1660601b815250508173ffffffffffffffffffffffffffffffffffffffff1660a08173ffffffffffffffffffffffffffffffffffffffff1660601b815250508073ffffffffffffffffffffffffffffffffffffffff1660c08173ffffffffffffffffffffffffffffffffffffffff1660601b8152505050505062000410565b600033905090565b60008060009054906101000a900473ffffffffffffffffffffffffffffffffffffffff169050816000806101000a81548173ffffffffffffffffffffffffffffffffffffffff021916908373ffffffffffffffffffffffffffffffffffffffff1602179055508173ffffffffffffffffffffffffffffffffffffffff168173ffffffffffffffffffffffffffffffffffffffff167f8be0079c531659141344cd1fd0a4f28419497f9722a3daafe3b4186f6b6457e060405160405180910390a35050565b600081519050620002e381620003f6565b92915050565b600080600060608486031215620002ff57600080fd5b60006200030f86828701620002d2565b93505060206200032286828701620002d2565b92505060406200033586828701620002d2565b9150509250925092565b60006200034e600c8362000388565b91506200035b82620003cd565b602082019050919050565b6000602082019050818103600083015262000381816200033f565b9050919050565b600082825260208201905092915050565b6000620003a682620003ad565b9050919050565b600073ffffffffffffffffffffffffffffffffffffffff82169050919050565b7f5a45524f5f414444524553530000000000000000000000000000000000000000600082015250565b620004018162000399565b81146200040d57600080fd5b50565b60805160601c60a05160601c60c05160601c6127e162000481600039600081816101eb01528181610ed701528181610f580152610fb7015260006105fc01526000818161050701528181610c7601528181610ca101528181610ccd015281816112d101526112f801526127e16000f3fe6080604052600436106100865760003560e01c806380f490a81161005957806380f490a8146101285780638da5cb5b14610153578063c4ae31681461017e578063e6ef0a0114610195578063f2fde38b146101c057610086565b80630a07ae621461008b57806315c7a62a146100b65780635c975abb146100e6578063715018a614610111575b600080fd5b34801561009757600080fd5b506100a06101e9565b6040516100ad9190611d82565b60405180910390f35b6100d060048036038101906100cb91906118b7565b61020d565b6040516100dd919061213e565b60405180910390f35b3480156100f257600080fd5b506100fb61046a565b6040516101089190611edb565b60405180910390f35b34801561011d57600080fd5b5061012661047d565b005b34801561013457600080fd5b5061013d610505565b60405161014a9190611f11565b60405180910390f35b34801561015f57600080fd5b50610168610529565b6040516101759190611d82565b60405180910390f35b34801561018a57600080fd5b50610193610552565b005b3480156101a157600080fd5b506101aa6105fa565b6040516101b79190611ef6565b60405180910390f35b3480156101cc57600080fd5b506101e760048036038101906101e29190611865565b61061e565b005b7f000000000000000000000000000000000000000000000000000000000000000081565b60008060149054906101000a900460ff161561025e576040517f08c379a000000000000000000000000000000000000000000000000000000000815260040161025590611f7e565b60405180910390fd5b600073ffffffffffffffffffffffffffffffffffffffff168673ffffffffffffffffffffffffffffffffffffffff1614156102ce576040517f08c379a00000000000000000000000000000000000000000000000000000000081526004016102c590611ffe565b60405180910390fd5b6000851180156102de5750600084115b61031d576040517f08c379a0000000000000000000000000000000000000000000000000000000008152600401610314906120be565b60405180910390fd5b6103278786610716565b6103348787878686610807565b90506103756040518060400160405280601281526020017f4d696e696d756d204c50207761733a202573000000000000000000000000000081525085610849565b6103b46040518060400160405280600d81526020017f4c5020426f756768743a2025730000000000000000000000000000000000000081525082610849565b838110156103f7576040517f08c379a00000000000000000000000000000000000000000000000000000000081526004016103ee9061201e565b60405180910390fd5b8573ffffffffffffffffffffffffffffffffffffffff168773ffffffffffffffffffffffffffffffffffffffff167fa9d243832e4b18cd02dd4b3c7a842ed3e2d6567f515e23a403d3dde9d7af7f2633888560405161045893929190611ea4565b60405180910390a39695505050505050565b600060149054906101000a900460ff1681565b6104856108e5565b73ffffffffffffffffffffffffffffffffffffffff166104a3610529565b73ffffffffffffffffffffffffffffffffffffffff16146104f9576040517f08c379a00000000000000000000000000000000000000000000000000000000081526004016104f09061203e565b60405180910390fd5b61050360006108ed565b565b7f000000000000000000000000000000000000000000000000000000000000000081565b60008060009054906101000a900473ffffffffffffffffffffffffffffffffffffffff16905090565b61055a6108e5565b73ffffffffffffffffffffffffffffffffffffffff16610578610529565b73ffffffffffffffffffffffffffffffffffffffff16146105ce576040517f08c379a00000000000000000000000000000000000000000000000000000000081526004016105c59061203e565b60405180910390fd5b600060149054906101000a900460ff1615600060146101000a81548160ff021916908315150217905550565b7f000000000000000000000000000000000000000000000000000000000000000081565b6106266108e5565b73ffffffffffffffffffffffffffffffffffffffff16610644610529565b73ffffffffffffffffffffffffffffffffffffffff161461069a576040517f08c379a00000000000000000000000000000000000000000000000000000000081526004016106919061203e565b60405180910390fd5b600073ffffffffffffffffffffffffffffffffffffffff168173ffffffffffffffffffffffffffffffffffffffff16141561070a576040517f08c379a000000000000000000000000000000000000000000000000000000000815260040161070190611f9e565b60405180910390fd5b610713816108ed565b50565b60008111610759576040517f08c379a0000000000000000000000000000000000000000000000000000000008152600401610750906120be565b60405180910390fd5b600073ffffffffffffffffffffffffffffffffffffffff168273ffffffffffffffffffffffffffffffffffffffff1614156107d5573481146107d0576040517f08c379a00000000000000000000000000000000000000000000000000000000081526004016107c790611fbe565b60405180910390fd5b610803565b6108023330838573ffffffffffffffffffffffffffffffffffffffff166109b1909392919063ffffffff16565b5b5050565b600080600061081587610a3a565b9150915060008061082a8a85858b8b8b610bb8565b9150915061083a84848484610c6e565b94505050505095945050505050565b6108e1828260405160240161085f929190611f4e565b6040516020818303038152906040527f9710a9d0000000000000000000000000000000000000000000000000000000007bffffffffffffffffffffffffffffffffffffffffffffffffffffffff19166020820180517bffffffffffffffffffffffffffffffffffffffffffffffffffffffff8381831617835250505050610daf565b5050565b600033905090565b60008060009054906101000a900473ffffffffffffffffffffffffffffffffffffffff169050816000806101000a81548173ffffffffffffffffffffffffffffffffffffffff021916908373ffffffffffffffffffffffffffffffffffffffff1602179055508173ffffffffffffffffffffffffffffffffffffffff168173ffffffffffffffffffffffffffffffffffffffff167f8be0079c531659141344cd1fd0a4f28419497f9722a3daafe3b4186f6b6457e060405160405180910390a35050565b610a34846323b872dd60e01b8585856040516024016109d293929190611d9d565b604051602081830303815290604052907bffffffffffffffffffffffffffffffffffffffffffffffffffffffff19166020820180517bffffffffffffffffffffffffffffffffffffffffffffffffffffffff8381831617835250505050610dd8565b50505050565b6000806000839050600073ffffffffffffffffffffffffffffffffffffffff168173ffffffffffffffffffffffffffffffffffffffff161415610ab2576040517f08c379a0000000000000000000000000000000000000000000000000000000008152600401610aa9906120de565b60405180910390fd5b8073ffffffffffffffffffffffffffffffffffffffff16630dfe16816040518163ffffffff1660e01b815260040160206040518083038186803b158015610af857600080fd5b505afa158015610b0c573d6000803e3d6000fd5b505050506040513d601f19601f82011682018060405250810190610b30919061188e565b92508073ffffffffffffffffffffffffffffffffffffffff1663d21220a76040518163ffffffff1660e01b815260040160206040518083038186803b158015610b7857600080fd5b505afa158015610b8c573d6000803e3d6000fd5b505050506040513d601f19601f82011682018060405250810190610bb0919061188e565b915050915091565b6000806000600286610bca919061229b565b90508773ffffffffffffffffffffffffffffffffffffffff168973ffffffffffffffffffffffffffffffffffffffff161415610c0857809250610c17565b610c1489898388610e9f565b92505b8673ffffffffffffffffffffffffffffffffffffffff168973ffffffffffffffffffffffffffffffffffffffff161415610c5357809150610c62565b610c5f89888387610e9f565b91505b50965096945050505050565b6000610c9b857f00000000000000000000000000000000000000000000000000000000000000008561106b565b610cc6847f00000000000000000000000000000000000000000000000000000000000000008461106b565b60008060007f000000000000000000000000000000000000000000000000000000000000000073ffffffffffffffffffffffffffffffffffffffff1663e8e337008989898960018033426040518963ffffffff1660e01b8152600401610d33989796959493929190611dd4565b606060405180830381600087803b158015610d4d57600080fd5b505af1158015610d61573d6000803e3d6000fd5b505050506040513d601f19601f82011682018060405250810190610d8591906119da565b925092509250610d96888785611212565b610da1878684611212565b809350505050949350505050565b60008151905060006a636f6e736f6c652e6c6f679050602083016000808483855afa5050505050565b6000610e3a826040518060400160405280602081526020017f5361666545524332303a206c6f772d6c6576656c2063616c6c206661696c65648152508573ffffffffffffffffffffffffffffffffffffffff166112429092919063ffffffff16565b9050600081511115610e9a5780806020019051810190610e5a91906119b1565b610e99576040517f08c379a0000000000000000000000000000000000000000000000000000000008152600401610e909061211e565b60405180910390fd5b5b505050565b60008073ffffffffffffffffffffffffffffffffffffffff168573ffffffffffffffffffffffffffffffffffffffff161415610fe5577f000000000000000000000000000000000000000000000000000000000000000073ffffffffffffffffffffffffffffffffffffffff1663d0e30db0846040518263ffffffff1660e01b81526004016000604051808303818588803b158015610f3d57600080fd5b505af1158015610f51573d6000803e3d6000fd5b50505050507f000000000000000000000000000000000000000000000000000000000000000073ffffffffffffffffffffffffffffffffffffffff168473ffffffffffffffffffffffffffffffffffffffff161415610fb257829050611063565b610fde7f000000000000000000000000000000000000000000000000000000000000000085858561125a565b9050611063565b8373ffffffffffffffffffffffffffffffffffffffff168573ffffffffffffffffffffffffffffffffffffffff161415611054576040517f08c379a000000000000000000000000000000000000000000000000000000000815260040161104b9061205e565b60405180910390fd5b6110608585858561125a565b90505b949350505050565b60008373ffffffffffffffffffffffffffffffffffffffff1663095ea7b38460006040518363ffffffff1660e01b81526004016110a9929190611e52565b602060405180830381600087803b1580156110c357600080fd5b505af11580156110d7573d6000803e3d6000fd5b505050506040513d601f19601f820116820180604052508101906110fb91906119b1565b90508061113d576040517f08c379a00000000000000000000000000000000000000000000000000000000081526004016111349061209e565b60405180910390fd5b8373ffffffffffffffffffffffffffffffffffffffff1663095ea7b384846040518363ffffffff1660e01b8152600401611178929190611e7b565b602060405180830381600087803b15801561119257600080fd5b505af11580156111a6573d6000803e3d6000fd5b505050506040513d601f19601f820116820180604052508101906111ca91906119b1565b90508061120c576040517f08c379a00000000000000000000000000000000000000000000000000000000081526004016112039061209e565b60405180910390fd5b50505050565b6000818361122091906122cc565b111561123d5761123c83828461123691906122cc565b33611449565b5b505050565b606061125184846000856114bc565b90509392505050565b60008373ffffffffffffffffffffffffffffffffffffffff168573ffffffffffffffffffffffffffffffffffffffff1614156112cb576040517f08c379a00000000000000000000000000000000000000000000000000000000081526004016112c29061205e565b60405180910390fd5b6112f6857f00000000000000000000000000000000000000000000000000000000000000008561106b565b7f000000000000000000000000000000000000000000000000000000000000000073ffffffffffffffffffffffffffffffffffffffff166338ed17398460018530426040518663ffffffff1660e01b8152600401611358959493929190612159565b600060405180830381600087803b15801561137257600080fd5b505af1158015611386573d6000803e3d6000fd5b505050506040513d6000823e3d601f19601f820116820180604052508101906113af9190611970565b600183516113bd91906122cc565b815181106113f4577f4e487b7100000000000000000000000000000000000000000000000000000000600052603260045260246000fd5b6020026020010151905060008111611441576040517f08c379a00000000000000000000000000000000000000000000000000000000081526004016114389061207e565b60405180910390fd5b949350505050565b6000821161148c576040517f08c379a0000000000000000000000000000000000000000000000000000000008152600401611483906120be565b60405180910390fd5b6114b781838573ffffffffffffffffffffffffffffffffffffffff166115d09092919063ffffffff16565b505050565b606082471015611501576040517f08c379a00000000000000000000000000000000000000000000000000000000081526004016114f890611fde565b60405180910390fd5b61150a85611656565b611549576040517f08c379a0000000000000000000000000000000000000000000000000000000008152600401611540906120fe565b60405180910390fd5b6000808673ffffffffffffffffffffffffffffffffffffffff1685876040516115729190611d6b565b60006040518083038185875af1925050503d80600081146115af576040519150601f19603f3d011682016040523d82523d6000602084013e6115b4565b606091505b50915091506115c4828286611669565b92505050949350505050565b6116518363a9059cbb60e01b84846040516024016115ef929190611e7b565b604051602081830303815290604052907bffffffffffffffffffffffffffffffffffffffffffffffffffffffff19166020820180517bffffffffffffffffffffffffffffffffffffffffffffffffffffffff8381831617835250505050610dd8565b505050565b600080823b905060008111915050919050565b60608315611679578290506116c9565b60008351111561168c5782518084602001fd5b816040517f08c379a00000000000000000000000000000000000000000000000000000000081526004016116c09190611f2c565b60405180910390fd5b9392505050565b60006116e36116de846121d8565b6121b3565b9050808382526020820190508285602086028201111561170257600080fd5b60005b85811015611732578161171888826117a8565b845260208401935060208301925050600181019050611705565b5050509392505050565b600061174f61174a84612204565b6121b3565b9050808382526020820190508285602086028201111561176e57600080fd5b60005b8581101561179e57816117848882611850565b845260208401935060208301925050600181019050611771565b5050509392505050565b6000813590506117b781612766565b92915050565b6000815190506117cc81612766565b92915050565b600082601f8301126117e357600080fd5b81356117f38482602086016116d0565b91505092915050565b600082601f83011261180d57600080fd5b815161181d84826020860161173c565b91505092915050565b6000815190506118358161277d565b92915050565b60008135905061184a81612794565b92915050565b60008151905061185f81612794565b92915050565b60006020828403121561187757600080fd5b6000611885848285016117a8565b91505092915050565b6000602082840312156118a057600080fd5b60006118ae848285016117bd565b91505092915050565b60008060008060008060c087890312156118d057600080fd5b60006118de89828a016117a8565b96505060206118ef89828a016117a8565b955050604061190089828a0161183b565b945050606061191189828a0161183b565b935050608087013567ffffffffffffffff81111561192e57600080fd5b61193a89828a016117d2565b92505060a087013567ffffffffffffffff81111561195757600080fd5b61196389828a016117d2565b9150509295509295509295565b60006020828403121561198257600080fd5b600082015167ffffffffffffffff81111561199c57600080fd5b6119a8848285016117fc565b91505092915050565b6000602082840312156119c357600080fd5b60006119d184828501611826565b91505092915050565b6000806000606084860312156119ef57600080fd5b60006119fd86828701611850565b9350506020611a0e86828701611850565b9250506040611a1f86828701611850565b9150509250925092565b6000611a358383611a41565b60208301905092915050565b611a4a81612300565b82525050565b611a5981612300565b82525050565b6000611a6a82612240565b611a74818561226e565b9350611a7f83612230565b8060005b83811015611ab0578151611a978882611a29565b9750611aa283612261565b925050600181019050611a83565b5085935050505092915050565b611ac681612312565b82525050565b6000611ad78261224b565b611ae1818561227f565b9350611af18185602086016123b4565b80840191505092915050565b611b0681612348565b82525050565b611b158161236c565b82525050565b611b2481612390565b82525050565b611b33816123a2565b82525050565b6000611b4482612256565b611b4e818561228a565b9350611b5e8185602086016123b4565b611b67816124a5565b840191505092915050565b6000611b7f600f8361228a565b9150611b8a826124b6565b602082019050919050565b6000611ba260268361228a565b9150611bad826124df565b604082019050919050565b6000611bc5600f8361228a565b9150611bd08261252e565b602082019050919050565b6000611be860268361228a565b9150611bf382612557565b604082019050919050565b6000611c0b600c8361228a565b9150611c16826125a6565b602082019050919050565b6000611c2e600d8361228a565b9150611c39826125cf565b602082019050919050565b6000611c5160208361228a565b9150611c5c826125f8565b602082019050919050565b6000611c74600c8361228a565b9150611c7f82612621565b602082019050919050565b6000611c97600b8361228a565b9150611ca28261264a565b602082019050919050565b6000611cba600f8361228a565b9150611cc582612673565b602082019050919050565b6000611cdd600b8361228a565b9150611ce88261269c565b602082019050919050565b6000611d00600e8361228a565b9150611d0b826126c5565b602082019050919050565b6000611d23601d8361228a565b9150611d2e826126ee565b602082019050919050565b6000611d46602a8361228a565b9150611d5182612717565b604082019050919050565b611d658161233e565b82525050565b6000611d778284611acc565b915081905092915050565b6000602082019050611d976000830184611a50565b92915050565b6000606082019050611db26000830186611a50565b611dbf6020830185611a50565b611dcc6040830184611d5c565b949350505050565b600061010082019050611dea600083018b611a50565b611df7602083018a611a50565b611e046040830189611d5c565b611e116060830188611d5c565b611e1e6080830187611b2a565b611e2b60a0830186611b2a565b611e3860c0830185611a50565b611e4560e0830184611d5c565b9998505050505050505050565b6000604082019050611e676000830185611a50565b611e746020830184611b1b565b9392505050565b6000604082019050611e906000830185611a50565b611e9d6020830184611d5c565b9392505050565b6000606082019050611eb96000830186611a50565b611ec66020830185611d5c565b611ed36040830184611d5c565b949350505050565b6000602082019050611ef06000830184611abd565b92915050565b6000602082019050611f0b6000830184611afd565b92915050565b6000602082019050611f266000830184611b0c565b92915050565b60006020820190508181036000830152611f468184611b39565b905092915050565b60006040820190508181036000830152611f688185611b39565b9050611f776020830184611d5c565b9392505050565b60006020820190508181036000830152611f9781611b72565b9050919050565b60006020820190508181036000830152611fb781611b95565b9050919050565b60006020820190508181036000830152611fd781611bb8565b9050919050565b60006020820190508181036000830152611ff781611bdb565b9050919050565b6000602082019050818103600083015261201781611bfe565b9050919050565b6000602082019050818103600083015261203781611c21565b9050919050565b6000602082019050818103600083015261205781611c44565b9050919050565b6000602082019050818103600083015261207781611c67565b9050919050565b6000602082019050818103600083015261209781611c8a565b9050919050565b600060208201905081810360008301526120b781611cad565b9050919050565b600060208201905081810360008301526120d781611cd0565b9050919050565b600060208201905081810360008301526120f781611cf3565b9050919050565b6000602082019050818103600083015261211781611d16565b9050919050565b6000602082019050818103600083015261213781611d39565b9050919050565b60006020820190506121536000830184611d5c565b92915050565b600060a08201905061216e6000830188611d5c565b61217b6020830187611b2a565b818103604083015261218d8186611a5f565b905061219c6060830185611a50565b6121a96080830184611d5c565b9695505050505050565b60006121bd6121ce565b90506121c982826123e7565b919050565b6000604051905090565b600067ffffffffffffffff8211156121f3576121f2612476565b5b602082029050602081019050919050565b600067ffffffffffffffff82111561221f5761221e612476565b5b602082029050602081019050919050565b6000819050602082019050919050565b600081519050919050565b600081519050919050565b600081519050919050565b6000602082019050919050565b600082825260208201905092915050565b600081905092915050565b600082825260208201905092915050565b60006122a68261233e565b91506122b18361233e565b9250826122c1576122c0612447565b5b828204905092915050565b60006122d78261233e565b91506122e28361233e565b9250828210156122f5576122f4612418565b5b828203905092915050565b600061230b8261231e565b9050919050565b60008115159050919050565b600073ffffffffffffffffffffffffffffffffffffffff82169050919050565b6000819050919050565b60006123538261235a565b9050919050565b60006123658261231e565b9050919050565b60006123778261237e565b9050919050565b60006123898261231e565b9050919050565b600061239b8261233e565b9050919050565b60006123ad8261233e565b9050919050565b60005b838110156123d25780820151818401526020810190506123b7565b838111156123e1576000848401525b50505050565b6123f0826124a5565b810181811067ffffffffffffffff8211171561240f5761240e612476565b5b80604052505050565b7f4e487b7100000000000000000000000000000000000000000000000000000000600052601160045260246000fd5b7f4e487b7100000000000000000000000000000000000000000000000000000000600052601260045260246000fd5b7f4e487b7100000000000000000000000000000000000000000000000000000000600052604160045260246000fd5b6000601f19601f8301169050919050565b7f434f4e54524143545f5041555345440000000000000000000000000000000000600082015250565b7f4f776e61626c653a206e6577206f776e657220697320746865207a65726f206160008201527f6464726573730000000000000000000000000000000000000000000000000000602082015250565b7f4d4f56525f4e45515f414d4f554e540000000000000000000000000000000000600082015250565b7f416464726573733a20696e73756666696369656e742062616c616e636520666f60008201527f722063616c6c0000000000000000000000000000000000000000000000000000602082015250565b7f5a45524f5f414444524553530000000000000000000000000000000000000000600082015250565b7f484947485f534c49505041474500000000000000000000000000000000000000600082015250565b7f4f776e61626c653a2063616c6c6572206973206e6f7420746865206f776e6572600082015250565b7f494e56414c49445f535741500000000000000000000000000000000000000000600082015250565b7f535741505f4641494c4544000000000000000000000000000000000000000000600082015250565b7f415050524f56414c5f4641494c45440000000000000000000000000000000000600082015250565b7f5a45524f5f414d4f554e54000000000000000000000000000000000000000000600082015250565b7f504149525f4e4f545f4558495354000000000000000000000000000000000000600082015250565b7f416464726573733a2063616c6c20746f206e6f6e2d636f6e7472616374000000600082015250565b7f5361666545524332303a204552433230206f7065726174696f6e20646964206e60008201527f6f74207375636365656400000000000000000000000000000000000000000000602082015250565b61276f81612300565b811461277a57600080fd5b50565b61278681612312565b811461279157600080fd5b50565b61279d8161233e565b81146127a857600080fd5b5056fea2646970667358221220fea3cc3cce5ad6d0d9770b559f534a2c8e827c4a9b5dad20ffd4d8bed4271ff164736f6c63430008040033",
  "linkReferences": {},
  "deployedLinkReferences": {}
}