{
  "_format": "hh-sol-artifact-1",
  "contractName": "WarpBaseV1",
  "sourceName": "contracts/base/WarpBase.sol",
  "abi": [
    {
      "anonymous": false,
      "inputs": [
        {
          "indexed": true,
          "internalType": "address",
          "name": "previousOwner",
          "type": "address"
        },
        {
          "indexed": true,
          "internalType": "address",
          "name": "newOwner",
          "type": "address"
        }
      ],
      "name": "OwnershipTransferred",
      "type": "event"
    },
    {
      "inputs": [],
      "name": "owner",
      "outputs": [
        {
          "internalType": "address",
          "name": "",
          "type": "address"
        }
      ],
      "stateMutability": "view",
      "type": "function"
    },
    {
      "inputs": [],
      "name": "paused",
      "outputs": [
        {
          "internalType": "bool",
          "name": "",
          "type": "bool"
        }
      ],
      "stateMutability": "view",
      "type": "function"
    },
    {
      "inputs": [],
      "name": "renounceOwnership",
      "outputs": [],
      "stateMutability": "nonpayable",
      "type": "function"
    },
    {
      "inputs": [],
      "name": "togglePause",
      "outputs": [],
      "stateMutability": "nonpayable",
      "type": "function"
    },
    {
      "inputs": [
        {
          "internalType": "address",
          "name": "newOwner",
          "type": "address"
        }
      ],
      "name": "transferOwnership",
      "outputs": [],
      "stateMutability": "nonpayable",
      "type": "function"
    }
  ],
  "bytecode": "0x608060405260008060146101000a81548160ff02191690831515021790555034801561002a57600080fd5b5061004761003c61004c60201b60201c565b61005460201b60201c565b610118565b600033905090565b60008060009054906101000a900473ffffffffffffffffffffffffffffffffffffffff169050816000806101000a81548173ffffffffffffffffffffffffffffffffffffffff021916908373ffffffffffffffffffffffffffffffffffffffff1602179055508173ffffffffffffffffffffffffffffffffffffffff168173ffffffffffffffffffffffffffffffffffffffff167f8be0079c531659141344cd1fd0a4f28419497f9722a3daafe3b4186f6b6457e060405160405180910390a35050565b610624806101276000396000f3fe608060405234801561001057600080fd5b50600436106100575760003560e01c80635c975abb1461005c578063715018a61461007a5780638da5cb5b14610084578063c4ae3168146100a2578063f2fde38b146100ac575b600080fd5b6100646100c8565b60405161007191906104b5565b60405180910390f35b6100826100db565b005b61008c610163565b604051610099919061049a565b60405180910390f35b6100aa61018c565b005b6100c660048036038101906100c1919061040d565b610234565b005b600060149054906101000a900460ff1681565b6100e361032c565b73ffffffffffffffffffffffffffffffffffffffff16610101610163565b73ffffffffffffffffffffffffffffffffffffffff1614610157576040517f08c379a000000000000000000000000000000000000000000000000000000000815260040161014e906104f0565b60405180910390fd5b6101616000610334565b565b60008060009054906101000a900473ffffffffffffffffffffffffffffffffffffffff16905090565b61019461032c565b73ffffffffffffffffffffffffffffffffffffffff166101b2610163565b73ffffffffffffffffffffffffffffffffffffffff1614610208576040517f08c379a00000000000000000000000000000000000000000000000000000000081526004016101ff906104f0565b60405180910390fd5b600060149054906101000a900460ff1615600060146101000a81548160ff021916908315150217905550565b61023c61032c565b73ffffffffffffffffffffffffffffffffffffffff1661025a610163565b73ffffffffffffffffffffffffffffffffffffffff16146102b0576040517f08c379a00000000000000000000000000000000000000000000000000000000081526004016102a7906104f0565b60405180910390fd5b600073ffffffffffffffffffffffffffffffffffffffff168173ffffffffffffffffffffffffffffffffffffffff161415610320576040517f08c379a0000000000000000000000000000000000000000000000000000000008152600401610317906104d0565b60405180910390fd5b61032981610334565b50565b600033905090565b60008060009054906101000a900473ffffffffffffffffffffffffffffffffffffffff169050816000806101000a81548173ffffffffffffffffffffffffffffffffffffffff021916908373ffffffffffffffffffffffffffffffffffffffff1602179055508173ffffffffffffffffffffffffffffffffffffffff168173ffffffffffffffffffffffffffffffffffffffff167f8be0079c531659141344cd1fd0a4f28419497f9722a3daafe3b4186f6b6457e060405160405180910390a35050565b600081359050610407816105d7565b92915050565b60006020828403121561041f57600080fd5b600061042d848285016103f8565b91505092915050565b61043f81610521565b82525050565b61044e81610533565b82525050565b6000610461602683610510565b915061046c8261055f565b604082019050919050565b6000610484602083610510565b915061048f826105ae565b602082019050919050565b60006020820190506104af6000830184610436565b92915050565b60006020820190506104ca6000830184610445565b92915050565b600060208201905081810360008301526104e981610454565b9050919050565b6000602082019050818103600083015261050981610477565b9050919050565b600082825260208201905092915050565b600061052c8261053f565b9050919050565b60008115159050919050565b600073ffffffffffffffffffffffffffffffffffffffff82169050919050565b7f4f776e61626c653a206e6577206f776e657220697320746865207a65726f206160008201527f6464726573730000000000000000000000000000000000000000000000000000602082015250565b7f4f776e61626c653a2063616c6c6572206973206e6f7420746865206f776e6572600082015250565b6105e081610521565b81146105eb57600080fd5b5056fea26469706673582212201fb2d3465b9ce2796271cc7220045a1f64de010c4b9e52df07f1e61cc955766264736f6c63430008040033",
  "linkReferences": {},
  "deployedLinkReferences": {}
}