{
  "_format": "hh-sol-artifact-1",
  "contractName": "WarpOutV1",
  "sourceName": "contracts/WarpOut.sol",
  "abi": [
    {
      "inputs": [
        {
          "internalType": "address",
          "name": "_router",
          "type": "address"
        },
        {
          "internalType": "address",
          "name": "_wMOVR",
          "type": "address"
        }
      ],
      "stateMutability": "nonpayable",
      "type": "constructor"
    },
    {
      "anonymous": false,
      "inputs": [
        {
          "indexed": true,
          "internalType": "address",
          "name": "previousOwner",
          "type": "address"
        },
        {
          "indexed": true,
          "internalType": "address",
          "name": "newOwner",
          "type": "address"
        }
      ],
      "name": "OwnershipTransferred",
      "type": "event"
    },
    {
      "anonymous": false,
      "inputs": [
        {
          "indexed": false,
          "internalType": "address",
          "name": "sender",
          "type": "address"
        },
        {
          "indexed": true,
          "internalType": "address",
          "name": "pool",
          "type": "address"
        },
        {
          "indexed": true,
          "internalType": "address",
          "name": "target",
          "type": "address"
        },
        {
          "indexed": false,
          "internalType": "uint256",
          "name": "LPAmount",
          "type": "uint256"
        },
        {
          "indexed": false,
          "internalType": "uint256",
          "name": "targetAmount",
          "type": "uint256"
        }
      ],
      "name": "WarpedOut",
      "type": "event"
    },
    {
      "inputs": [],
      "name": "owner",
      "outputs": [
        {
          "internalType": "address",
          "name": "",
          "type": "address"
        }
      ],
      "stateMutability": "view",
      "type": "function"
    },
    {
      "inputs": [],
      "name": "paused",
      "outputs": [
        {
          "internalType": "bool",
          "name": "",
          "type": "bool"
        }
      ],
      "stateMutability": "view",
      "type": "function"
    },
    {
      "inputs": [],
      "name": "renounceOwnership",
      "outputs": [],
      "stateMutability": "nonpayable",
      "type": "function"
    },
    {
      "inputs": [],
      "name": "solarRouter",
      "outputs": [
        {
          "internalType": "contract ISolarRouter02",
          "name": "",
          "type": "address"
        }
      ],
      "stateMutability": "view",
      "type": "function"
    },
    {
      "inputs": [],
      "name": "togglePause",
      "outputs": [],
      "stateMutability": "nonpayable",
      "type": "function"
    },
    {
      "inputs": [
        {
          "internalType": "address",
          "name": "newOwner",
          "type": "address"
        }
      ],
      "name": "transferOwnership",
      "outputs": [],
      "stateMutability": "nonpayable",
      "type": "function"
    },
    {
      "inputs": [],
      "name": "wMOVR",
      "outputs": [
        {
          "internalType": "address",
          "name": "",
          "type": "address"
        }
      ],
      "stateMutability": "view",
      "type": "function"
    },
    {
      "inputs": [
        {
          "internalType": "address",
          "name": "fromLP",
          "type": "address"
        },
        {
          "internalType": "address",
          "name": "to",
          "type": "address"
        },
        {
          "internalType": "uint256",
          "name": "lpAmount",
          "type": "uint256"
        },
        {
          "internalType": "address[]",
          "name": "path0",
          "type": "address[]"
        },
        {
          "internalType": "address[]",
          "name": "path1",
          "type": "address[]"
        }
      ],
      "name": "warpOut",
      "outputs": [
        {
          "internalType": "uint256",
          "name": "amountReceived",
          "type": "uint256"
        }
      ],
      "stateMutability": "nonpayable",
      "type": "function"
    },
    {
      "stateMutability": "payable",
      "type": "receive"
    }
  ],
  "bytecode": "0x60c060405260008060146101000a81548160ff0219169083151502179055503480156200002b57600080fd5b5060405162002f8d38038062002f8d833981810160405281019062000051919062000277565b62000071620000656200019460201b60201c565b6200019c60201b60201c565b600073ffffffffffffffffffffffffffffffffffffffff168273ffffffffffffffffffffffffffffffffffffffff1614158015620000dc5750600073ffffffffffffffffffffffffffffffffffffffff168173ffffffffffffffffffffffffffffffffffffffff1614155b6200011e576040517f08c379a00000000000000000000000000000000000000000000000000000000081526004016200011590620002df565b60405180910390fd5b8173ffffffffffffffffffffffffffffffffffffffff1660808173ffffffffffffffffffffffffffffffffffffffff1660601b815250508073ffffffffffffffffffffffffffffffffffffffff1660a08173ffffffffffffffffffffffffffffffffffffffff1660601b81525050505062000389565b600033905090565b60008060009054906101000a900473ffffffffffffffffffffffffffffffffffffffff169050816000806101000a81548173ffffffffffffffffffffffffffffffffffffffff021916908373ffffffffffffffffffffffffffffffffffffffff1602179055508173ffffffffffffffffffffffffffffffffffffffff168173ffffffffffffffffffffffffffffffffffffffff167f8be0079c531659141344cd1fd0a4f28419497f9722a3daafe3b4186f6b6457e060405160405180910390a35050565b60008151905062000271816200036f565b92915050565b600080604083850312156200028b57600080fd5b60006200029b8582860162000260565b9250506020620002ae8582860162000260565b9150509250929050565b6000620002c7600c8362000301565b9150620002d48262000346565b602082019050919050565b60006020820190508181036000830152620002fa81620002b8565b9050919050565b600082825260208201905092915050565b60006200031f8262000326565b9050919050565b600073ffffffffffffffffffffffffffffffffffffffff82169050919050565b7f5a45524f5f414444524553530000000000000000000000000000000000000000600082015250565b6200037a8162000312565b81146200038657600080fd5b50565b60805160601c60a05160601c612ba0620003ed600039600081816101cd01528181611139015261118d015260008181610583015281816108ff01528181610926015281816112240152818161124b0152818161143c01526114630152612ba06000f3fe60806040526004361061007f5760003560e01c806380f490a81161004e57806380f490a8146101355780638da5cb5b14610160578063c4ae31681461018b578063f2fde38b146101a257610086565b80630a07ae621461008b5780635c975abb146100b65780635cad9ae7146100e1578063715018a61461011e57610086565b3661008657005b600080fd5b34801561009757600080fd5b506100a06101cb565b6040516100ad9190612072565b60405180910390f35b3480156100c257600080fd5b506100cb6101ef565b6040516100d891906121bc565b60405180910390f35b3480156100ed57600080fd5b5061010860048036038101906101039190611b17565b610202565b6040516101159190612484565b60405180910390f35b34801561012a57600080fd5b506101336104f9565b005b34801561014157600080fd5b5061014a610581565b60405161015791906121d7565b60405180910390f35b34801561016c57600080fd5b506101756105a5565b6040516101829190612072565b60405180910390f35b34801561019757600080fd5b506101a06105ce565b005b3480156101ae57600080fd5b506101c960048036038101906101c49190611ac5565b610676565b005b7f000000000000000000000000000000000000000000000000000000000000000081565b600060149054906101000a900460ff1681565b60008060149054906101000a900460ff1615610253576040517f08c379a000000000000000000000000000000000000000000000000000000000815260040161024a90612264565b60405180910390fd5b60008411610296576040517f08c379a000000000000000000000000000000000000000000000000000000000815260040161028d90612404565b60405180910390fd5b6000806102a28861076e565b91509150600073ffffffffffffffffffffffffffffffffffffffff168773ffffffffffffffffffffffffffffffffffffffff16148061030c57508173ffffffffffffffffffffffffffffffffffffffff168773ffffffffffffffffffffffffffffffffffffffff16145b8061034257508073ffffffffffffffffffffffffffffffffffffffff168773ffffffffffffffffffffffffffffffffffffffff16145b610381576040517f08c379a000000000000000000000000000000000000000000000000000000000815260040161037890612364565b60405180910390fd5b6000806103908a85858b6108ec565b91509150600073ffffffffffffffffffffffffffffffffffffffff168973ffffffffffffffffffffffffffffffffffffffff161415610427576103d7848484848b8b610a3b565b94506104186040518060400160405280600f81526020017f4d4f565220416d6f756e743a202573000000000000000000000000000000000081525086610a69565b6104228533610b05565b610483565b61043684848b85858c8c610bf9565b94506104776040518060400160405280601081526020017f546f6b656e20416d6f756e743a2025730000000000000000000000000000000081525086610a69565b610482898633610d1c565b5b8873ffffffffffffffffffffffffffffffffffffffff168a73ffffffffffffffffffffffffffffffffffffffff167f71d403f319203a2243379b34e5b6d8541bfe5e3c02b2671e22c3f9db63eb1060338b896040516104e493929190612185565b60405180910390a35050505095945050505050565b610501610d8f565b73ffffffffffffffffffffffffffffffffffffffff1661051f6105a5565b73ffffffffffffffffffffffffffffffffffffffff1614610575576040517f08c379a000000000000000000000000000000000000000000000000000000000815260040161056c90612384565b60405180910390fd5b61057f6000610d97565b565b7f000000000000000000000000000000000000000000000000000000000000000081565b60008060009054906101000a900473ffffffffffffffffffffffffffffffffffffffff16905090565b6105d6610d8f565b73ffffffffffffffffffffffffffffffffffffffff166105f46105a5565b73ffffffffffffffffffffffffffffffffffffffff161461064a576040517f08c379a000000000000000000000000000000000000000000000000000000000815260040161064190612384565b60405180910390fd5b600060149054906101000a900460ff1615600060146101000a81548160ff021916908315150217905550565b61067e610d8f565b73ffffffffffffffffffffffffffffffffffffffff1661069c6105a5565b73ffffffffffffffffffffffffffffffffffffffff16146106f2576040517f08c379a00000000000000000000000000000000000000000000000000000000081526004016106e990612384565b60405180910390fd5b600073ffffffffffffffffffffffffffffffffffffffff168173ffffffffffffffffffffffffffffffffffffffff161415610762576040517f08c379a000000000000000000000000000000000000000000000000000000000815260040161075990612284565b60405180910390fd5b61076b81610d97565b50565b6000806000839050600073ffffffffffffffffffffffffffffffffffffffff168173ffffffffffffffffffffffffffffffffffffffff1614156107e6576040517f08c379a00000000000000000000000000000000000000000000000000000000081526004016107dd90612424565b60405180910390fd5b8073ffffffffffffffffffffffffffffffffffffffff16630dfe16816040518163ffffffff1660e01b815260040160206040518083038186803b15801561082c57600080fd5b505afa158015610840573d6000803e3d6000fd5b505050506040513d601f19601f820116820180604052508101906108649190611aee565b92508073ffffffffffffffffffffffffffffffffffffffff1663d21220a76040518163ffffffff1660e01b815260040160206040518083038186803b1580156108ac57600080fd5b505afa1580156108c0573d6000803e3d6000fd5b505050506040513d601f19601f820116820180604052508101906108e49190611aee565b915050915091565b6000806108f98684610e5b565b610924867f000000000000000000000000000000000000000000000000000000000000000085610f4c565b7f000000000000000000000000000000000000000000000000000000000000000073ffffffffffffffffffffffffffffffffffffffff1663baa2abde86868660018030426040518863ffffffff1660e01b815260040161098a97969594939291906120c4565b6040805180830381600087803b1580156109a357600080fd5b505af11580156109b7573d6000803e3d6000fd5b505050506040513d601f19601f820116820180604052508101906109db9190611c28565b80925081935050506000821180156109f35750600081115b610a32576040517f08c379a0000000000000000000000000000000000000000000000000000000008152600401610a2990612304565b60405180910390fd5b94509492505050565b6000610a488685846110f3565b610a538887866110f3565b610a5d91906125e1565b90509695505050505050565b610b018282604051602401610a7f929190612214565b6040516020818303038152906040527f9710a9d0000000000000000000000000000000000000000000000000000000007bffffffffffffffffffffffffffffffffffffffffffffffffffffffff19166020820180517bffffffffffffffffffffffffffffffffffffffffffffffffffffffff838183161783525050505061139c565b5050565b81471015610b48576040517f08c379a0000000000000000000000000000000000000000000000000000000008152600401610b3f906122c4565b60405180910390fd5b60008173ffffffffffffffffffffffffffffffffffffffff1683604051610b6e9061205d565b60006040518083038185875af1925050503d8060008114610bab576040519150601f19603f3d011682016040523d82523d6000602084013e610bb0565b606091505b5050905080610bf4576040517f08c379a0000000000000000000000000000000000000000000000000000000008152600401610beb90612324565b60405180910390fd5b505050565b60008773ffffffffffffffffffffffffffffffffffffffff168673ffffffffffffffffffffffffffffffffffffffff161480610c6057508673ffffffffffffffffffffffffffffffffffffffff168673ffffffffffffffffffffffffffffffffffffffff16145b610c9f576040517f08c379a0000000000000000000000000000000000000000000000000000000008152600401610c9690612364565b60405180910390fd5b8773ffffffffffffffffffffffffffffffffffffffff168673ffffffffffffffffffffffffffffffffffffffff161415610cf457849050610ce2878986856113c5565b81610ced91906125e1565b9050610d11565b839050610d03888887866113c5565b81610d0e91906125e1565b90505b979650505050505050565b60008211610d5f576040517f08c379a0000000000000000000000000000000000000000000000000000000008152600401610d5690612404565b60405180910390fd5b610d8a81838573ffffffffffffffffffffffffffffffffffffffff166115b49092919063ffffffff16565b505050565b600033905090565b60008060009054906101000a900473ffffffffffffffffffffffffffffffffffffffff169050816000806101000a81548173ffffffffffffffffffffffffffffffffffffffff021916908373ffffffffffffffffffffffffffffffffffffffff1602179055508173ffffffffffffffffffffffffffffffffffffffff168173ffffffffffffffffffffffffffffffffffffffff167f8be0079c531659141344cd1fd0a4f28419497f9722a3daafe3b4186f6b6457e060405160405180910390a35050565b60008111610e9e576040517f08c379a0000000000000000000000000000000000000000000000000000000008152600401610e9590612404565b60405180910390fd5b600073ffffffffffffffffffffffffffffffffffffffff168273ffffffffffffffffffffffffffffffffffffffff161415610f1a57348114610f15576040517f08c379a0000000000000000000000000000000000000000000000000000000008152600401610f0c906122a4565b60405180910390fd5b610f48565b610f473330838573ffffffffffffffffffffffffffffffffffffffff1661163a909392919063ffffffff16565b5b5050565b60008373ffffffffffffffffffffffffffffffffffffffff1663095ea7b38460006040518363ffffffff1660e01b8152600401610f8a929190612133565b602060405180830381600087803b158015610fa457600080fd5b505af1158015610fb8573d6000803e3d6000fd5b505050506040513d601f19601f82011682018060405250810190610fdc9190611bff565b90508061101e576040517f08c379a0000000000000000000000000000000000000000000000000000000008152600401611015906123e4565b60405180910390fd5b8373ffffffffffffffffffffffffffffffffffffffff1663095ea7b384846040518363ffffffff1660e01b815260040161105992919061215c565b602060405180830381600087803b15801561107357600080fd5b505af1158015611087573d6000803e3d6000fd5b505050506040513d601f19601f820116820180604052508101906110ab9190611bff565b9050806110ed576040517f08c379a00000000000000000000000000000000000000000000000000000000081526004016110e4906123e4565b60405180910390fd5b50505050565b6000808311611137576040517f08c379a000000000000000000000000000000000000000000000000000000000815260040161112e90612244565b60405180910390fd5b7f000000000000000000000000000000000000000000000000000000000000000073ffffffffffffffffffffffffffffffffffffffff168473ffffffffffffffffffffffffffffffffffffffff16141561121e577f000000000000000000000000000000000000000000000000000000000000000073ffffffffffffffffffffffffffffffffffffffff16632e1a7d4d846040518263ffffffff1660e01b81526004016111e49190612484565b600060405180830381600087803b1580156111fe57600080fd5b505af1158015611212573d6000803e3d6000fd5b50505050829050611352565b611249847f000000000000000000000000000000000000000000000000000000000000000085610f4c565b7f000000000000000000000000000000000000000000000000000000000000000073ffffffffffffffffffffffffffffffffffffffff166318cbafe58460018530426040518663ffffffff1660e01b81526004016112ab95949392919061249f565b600060405180830381600087803b1580156112c557600080fd5b505af11580156112d9573d6000803e3d6000fd5b505050506040513d6000823e3d601f19601f820116820180604052508101906113029190611bbe565b600183516113109190612637565b81518110611347577f4e487b7100000000000000000000000000000000000000000000000000000000600052603260045260246000fd5b602002602001015190505b60008111611395576040517f08c379a000000000000000000000000000000000000000000000000000000000815260040161138c90612344565b60405180910390fd5b9392505050565b60008151905060006a636f6e736f6c652e6c6f679050602083016000808483855afa5050505050565b60008373ffffffffffffffffffffffffffffffffffffffff168573ffffffffffffffffffffffffffffffffffffffff161415611436576040517f08c379a000000000000000000000000000000000000000000000000000000000815260040161142d906123a4565b60405180910390fd5b611461857f000000000000000000000000000000000000000000000000000000000000000085610f4c565b7f000000000000000000000000000000000000000000000000000000000000000073ffffffffffffffffffffffffffffffffffffffff166338ed17398460018530426040518663ffffffff1660e01b81526004016114c395949392919061249f565b600060405180830381600087803b1580156114dd57600080fd5b505af11580156114f1573d6000803e3d6000fd5b505050506040513d6000823e3d601f19601f8201168201806040525081019061151a9190611bbe565b600183516115289190612637565b8151811061155f577f4e487b7100000000000000000000000000000000000000000000000000000000600052603260045260246000fd5b60200260200101519050600081116115ac576040517f08c379a00000000000000000000000000000000000000000000000000000000081526004016115a3906123c4565b60405180910390fd5b949350505050565b6116358363a9059cbb60e01b84846040516024016115d392919061215c565b604051602081830303815290604052907bffffffffffffffffffffffffffffffffffffffffffffffffffffffff19166020820180517bffffffffffffffffffffffffffffffffffffffffffffffffffffffff83818316178352505050506116c3565b505050565b6116bd846323b872dd60e01b85858560405160240161165b9392919061208d565b604051602081830303815290604052907bffffffffffffffffffffffffffffffffffffffffffffffffffffffff19166020820180517bffffffffffffffffffffffffffffffffffffffffffffffffffffffff83818316178352505050506116c3565b50505050565b6000611725826040518060400160405280602081526020017f5361666545524332303a206c6f772d6c6576656c2063616c6c206661696c65648152508573ffffffffffffffffffffffffffffffffffffffff1661178a9092919063ffffffff16565b905060008151111561178557808060200190518101906117459190611bff565b611784576040517f08c379a000000000000000000000000000000000000000000000000000000000815260040161177b90612464565b60405180910390fd5b5b505050565b606061179984846000856117a2565b90509392505050565b6060824710156117e7576040517f08c379a00000000000000000000000000000000000000000000000000000000081526004016117de906122e4565b60405180910390fd5b6117f0856118b6565b61182f576040517f08c379a000000000000000000000000000000000000000000000000000000000815260040161182690612444565b60405180910390fd5b6000808673ffffffffffffffffffffffffffffffffffffffff1685876040516118589190612046565b60006040518083038185875af1925050503d8060008114611895576040519150601f19603f3d011682016040523d82523d6000602084013e61189a565b606091505b50915091506118aa8282866118c9565b92505050949350505050565b600080823b905060008111915050919050565b606083156118d957829050611929565b6000835111156118ec5782518084602001fd5b816040517f08c379a000000000000000000000000000000000000000000000000000000000815260040161192091906121f2565b60405180910390fd5b9392505050565b600061194361193e8461251e565b6124f9565b9050808382526020820190508285602086028201111561196257600080fd5b60005b8581101561199257816119788882611a08565b845260208401935060208301925050600181019050611965565b5050509392505050565b60006119af6119aa8461254a565b6124f9565b905080838252602082019050828560208602820111156119ce57600080fd5b60005b858110156119fe57816119e48882611ab0565b8452602084019350602083019250506001810190506119d1565b5050509392505050565b600081359050611a1781612b25565b92915050565b600081519050611a2c81612b25565b92915050565b600082601f830112611a4357600080fd5b8135611a53848260208601611930565b91505092915050565b600082601f830112611a6d57600080fd5b8151611a7d84826020860161199c565b91505092915050565b600081519050611a9581612b3c565b92915050565b600081359050611aaa81612b53565b92915050565b600081519050611abf81612b53565b92915050565b600060208284031215611ad757600080fd5b6000611ae584828501611a08565b91505092915050565b600060208284031215611b0057600080fd5b6000611b0e84828501611a1d565b91505092915050565b600080600080600060a08688031215611b2f57600080fd5b6000611b3d88828901611a08565b9550506020611b4e88828901611a08565b9450506040611b5f88828901611a9b565b935050606086013567ffffffffffffffff811115611b7c57600080fd5b611b8888828901611a32565b925050608086013567ffffffffffffffff811115611ba557600080fd5b611bb188828901611a32565b9150509295509295909350565b600060208284031215611bd057600080fd5b600082015167ffffffffffffffff811115611bea57600080fd5b611bf684828501611a5c565b91505092915050565b600060208284031215611c1157600080fd5b6000611c1f84828501611a86565b91505092915050565b60008060408385031215611c3b57600080fd5b6000611c4985828601611ab0565b9250506020611c5a85828601611ab0565b9150509250929050565b6000611c708383611c7c565b60208301905092915050565b611c858161266b565b82525050565b611c948161266b565b82525050565b6000611ca582612586565b611caf81856125b4565b9350611cba83612576565b8060005b83811015611ceb578151611cd28882611c64565b9750611cdd836125a7565b925050600181019050611cbe565b5085935050505092915050565b611d018161267d565b82525050565b6000611d1282612591565b611d1c81856125c5565b9350611d2c8185602086016126fb565b80840191505092915050565b611d41816126b3565b82525050565b611d50816126d7565b82525050565b611d5f816126e9565b82525050565b6000611d708261259c565b611d7a81856125d0565b9350611d8a8185602086016126fb565b611d93816127bd565b840191505092915050565b6000611dab600b836125d0565b9150611db6826127ce565b602082019050919050565b6000611dce600f836125d0565b9150611dd9826127f7565b602082019050919050565b6000611df16026836125d0565b9150611dfc82612820565b604082019050919050565b6000611e14600f836125d0565b9150611e1f8261286f565b602082019050919050565b6000611e37601d836125d0565b9150611e4282612898565b602082019050919050565b6000611e5a6026836125d0565b9150611e65826128c1565b604082019050919050565b6000611e7d6014836125d0565b9150611e8882612910565b602082019050919050565b6000611ea0600f836125d0565b9150611eab82612939565b602082019050919050565b6000611ec36010836125d0565b9150611ece82612962565b602082019050919050565b6000611ee66013836125d0565b9150611ef18261298b565b602082019050919050565b6000611f096020836125d0565b9150611f14826129b4565b602082019050919050565b6000611f2c600c836125d0565b9150611f37826129dd565b602082019050919050565b6000611f4f600b836125d0565b9150611f5a82612a06565b602082019050919050565b6000611f72600f836125d0565b9150611f7d82612a2f565b602082019050919050565b6000611f95600b836125d0565b9150611fa082612a58565b602082019050919050565b6000611fb8600e836125d0565b9150611fc382612a81565b602082019050919050565b6000611fdb6000836125c5565b9150611fe682612aaa565b600082019050919050565b6000611ffe601d836125d0565b915061200982612aad565b602082019050919050565b6000612021602a836125d0565b915061202c82612ad6565b604082019050919050565b612040816126a9565b82525050565b60006120528284611d07565b915081905092915050565b600061206882611fce565b9150819050919050565b60006020820190506120876000830184611c8b565b92915050565b60006060820190506120a26000830186611c8b565b6120af6020830185611c8b565b6120bc6040830184612037565b949350505050565b600060e0820190506120d9600083018a611c8b565b6120e66020830189611c8b565b6120f36040830188612037565b6121006060830187611d56565b61210d6080830186611d56565b61211a60a0830185611c8b565b61212760c0830184612037565b98975050505050505050565b60006040820190506121486000830185611c8b565b6121556020830184611d47565b9392505050565b60006040820190506121716000830185611c8b565b61217e6020830184612037565b9392505050565b600060608201905061219a6000830186611c8b565b6121a76020830185612037565b6121b46040830184612037565b949350505050565b60006020820190506121d16000830184611cf8565b92915050565b60006020820190506121ec6000830184611d38565b92915050565b6000602082019050818103600083015261220c8184611d65565b905092915050565b6000604082019050818103600083015261222e8185611d65565b905061223d6020830184612037565b9392505050565b6000602082019050818103600083015261225d81611d9e565b9050919050565b6000602082019050818103600083015261227d81611dc1565b9050919050565b6000602082019050818103600083015261229d81611de4565b9050919050565b600060208201905081810360008301526122bd81611e07565b9050919050565b600060208201905081810360008301526122dd81611e2a565b9050919050565b600060208201905081810360008301526122fd81611e4d565b9050919050565b6000602082019050818103600083015261231d81611e70565b9050919050565b6000602082019050818103600083015261233d81611e93565b9050919050565b6000602082019050818103600083015261235d81611eb6565b9050919050565b6000602082019050818103600083015261237d81611ed9565b9050919050565b6000602082019050818103600083015261239d81611efc565b9050919050565b600060208201905081810360008301526123bd81611f1f565b9050919050565b600060208201905081810360008301526123dd81611f42565b9050919050565b600060208201905081810360008301526123fd81611f65565b9050919050565b6000602082019050818103600083015261241d81611f88565b9050919050565b6000602082019050818103600083015261243d81611fab565b9050919050565b6000602082019050818103600083015261245d81611ff1565b9050919050565b6000602082019050818103600083015261247d81612014565b9050919050565b60006020820190506124996000830184612037565b92915050565b600060a0820190506124b46000830188612037565b6124c16020830187611d56565b81810360408301526124d38186611c9a565b90506124e26060830185611c8b565b6124ef6080830184612037565b9695505050505050565b6000612503612514565b905061250f828261272e565b919050565b6000604051905090565b600067ffffffffffffffff8211156125395761253861278e565b5b602082029050602081019050919050565b600067ffffffffffffffff8211156125655761256461278e565b5b602082029050602081019050919050565b6000819050602082019050919050565b600081519050919050565b600081519050919050565b600081519050919050565b6000602082019050919050565b600082825260208201905092915050565b600081905092915050565b600082825260208201905092915050565b60006125ec826126a9565b91506125f7836126a9565b9250827fffffffffffffffffffffffffffffffffffffffffffffffffffffffffffffffff0382111561262c5761262b61275f565b5b828201905092915050565b6000612642826126a9565b915061264d836126a9565b9250828210156126605761265f61275f565b5b828203905092915050565b600061267682612689565b9050919050565b60008115159050919050565b600073ffffffffffffffffffffffffffffffffffffffff82169050919050565b6000819050919050565b60006126be826126c5565b9050919050565b60006126d082612689565b9050919050565b60006126e2826126a9565b9050919050565b60006126f4826126a9565b9050919050565b60005b838110156127195780820151818401526020810190506126fe565b83811115612728576000848401525b50505050565b612737826127bd565b810181811067ffffffffffffffff821117156127565761275561278e565b5b80604052505050565b7f4e487b7100000000000000000000000000000000000000000000000000000000600052601160045260246000fd5b7f4e487b7100000000000000000000000000000000000000000000000000000000600052604160045260246000fd5b6000601f19601f8301169050919050565b7f414d4f554e545f5a45524f000000000000000000000000000000000000000000600082015250565b7f434f4e54524143545f5041555345440000000000000000000000000000000000600082015250565b7f4f776e61626c653a206e6577206f776e657220697320746865207a65726f206160008201527f6464726573730000000000000000000000000000000000000000000000000000602082015250565b7f4d4f56525f4e45515f414d4f554e540000000000000000000000000000000000600082015250565b7f416464726573733a20696e73756666696369656e742062616c616e6365000000600082015250565b7f416464726573733a20696e73756666696369656e742062616c616e636520666f60008201527f722063616c6c0000000000000000000000000000000000000000000000000000602082015250565b7f494e434f52524543545f52454d4f56455f4c4951000000000000000000000000600082015250565b7f53454e445f56414c55455f4641494c0000000000000000000000000000000000600082015250565b7f4d4f56525f414d4f554e545f5a45524f00000000000000000000000000000000600082015250565b7f44455354494e4154494f4e5f494e56414c494400000000000000000000000000600082015250565b7f4f776e61626c653a2063616c6c6572206973206e6f7420746865206f776e6572600082015250565b7f494e56414c49445f535741500000000000000000000000000000000000000000600082015250565b7f535741505f4641494c4544000000000000000000000000000000000000000000600082015250565b7f415050524f56414c5f4641494c45440000000000000000000000000000000000600082015250565b7f5a45524f5f414d4f554e54000000000000000000000000000000000000000000600082015250565b7f504149525f4e4f545f4558495354000000000000000000000000000000000000600082015250565b50565b7f416464726573733a2063616c6c20746f206e6f6e2d636f6e7472616374000000600082015250565b7f5361666545524332303a204552433230206f7065726174696f6e20646964206e60008201527f6f74207375636365656400000000000000000000000000000000000000000000602082015250565b612b2e8161266b565b8114612b3957600080fd5b50565b612b458161267d565b8114612b5057600080fd5b50565b612b5c816126a9565b8114612b6757600080fd5b5056fea2646970667358221220695e9faec1d3c8ee8a3c08e182b27d08a63c81f2bf7c2b5bb3dffa2b32e4b03164736f6c63430008040033",
  "linkReferences": {},
  "deployedLinkReferences": {}
}